:100000000C9454000C9471000C9471000C947100C9
:100010000C9471000C9471000C9471000C9471009C
:100020000C9471000C946B030C9471000C9471008F
:100030000C9471000C9471000C9471000C9471007C
:100040000C9471000C9471000C9471000C9471006C
:100050000C9471000C9471000C9471000C9471005C
:100060000C9471000C947100001F000000001F0030
:10007000001F101010101F00001F181818181F0064
:10008000001F1C1C1C1C1F00001F1E1E1E1E1F000C
:10009000001F1F1F1F1F1F0003070F1F0F07030055
:1000A000181C1E1F1E1C180011241FBECFEFD8E005
:1000B000DEBFCDBF11E0A0E0B1E0EAE8F8E002C0A9
:1000C00005900D92A630B107D9F721E0A6E0B1E086
:1000D00001C01D92A730B207E1F70E94FE020C9406
:1000E00043040C94000065B1982F9074492F50E0A0
:1000F00055954795559547955595479555954795E8
:10010000982F9078292F30E0022E232F000C221FE9
:10011000330B000C221F331F962F997F492B242B62
:1001200025B968B1982F9071492F50E055954795A2
:100130005595479555954795982F9072292F30E002
:10014000359527953595279535952795962F997F40
:10015000492B242B28B99BB192609BB99BB191602C
:100160009BB925ED2A95F1F700009BB19E7F9BB9C5
:100170009BB19D7F9BB995ED9A95F1F7000065B114
:1001800020E1829FC0011124AC0140745527559590
:1001900047955595479555954795559547959C0194
:1001A00020783327022E232F000C221F330B000C44
:1001B000221F331F362F397F432B242B25B948B1FB
:1001C0009C012071332735952795359527953595D1
:1001D00027958072992795958795959587959595FB
:1001E0008795942F997F292B822B88B98BB18260B8
:1001F0008BB98BB181608BB985ED8A95F1F70000E1
:100200008BB18E7F8BB98BB18D7F8BB995ED9A9524
:10021000F1F70000089565B1982F9074492F50E0D0
:1002200055954795559547955595479555954795B6
:10023000982F9078292F30E0022E232F000C221FB8
:10024000330B000C221F331F962F997F492B242B31
:1002500025B968B1982F9071492F50E05595479571
:100260005595479555954795982F9072292F30E0D1
:10027000359527953595279535952795962F997F0F
:10028000492B242B28B99BB191609BB9EFE9FFE082
:100290003197F1F700C000009BB19E7F9BB9EFE959
:1002A000FFE03197F1F700C0000065B1F0E18F9FEA
:1002B000C0011124AC0140745527559547955595BB
:1002C000479555954795559547959C012078332737
:1002D000022E232F000C221F330B000C221F331F72
:1002E000362F397F432B242B25B948B19C0120712F
:1002F0003327359527953595279535952795807220
:100300009927959587959595879595958795942F98
:10031000997F292B822B88B98BB181608BB98FE9AA
:100320009FE00197F1F700C000008BB18E7F8BB981
:10033000EFE9FFE03197F1F700C0000008950F9357
:100340001F93CF93DF93009769F0D62F8C01C0E005
:1003500007C0F801EC0FF11D80810E947300CF5F90
:10036000CD17B8F3DF91CF911F910F9108956230AF
:1003700031F0633031F0613029F4805C03C08C5E71
:1003800001C08C5A80680E940B010895EF92FF9281
:100390000F931F93CF93DF937C01862F90E0880FFC
:1003A000991F880F991F880F991F8064C0E0D0E0C3
:1003B0000DC0F701EC0FFD1F149101E0080F0E9422
:1003C0000B01812F0E9473002196802FC830D10528
:1003D00080F3DF91CF911F910F91FF90EF900895DF
:1003E000CF93DF938FE59AEE0197F1F700C00000FD
:1003F00085B1897F85B988B1897F88B91BB887B1F4
:10040000866087B984B1866084B984B1866084B916
:1004100087B1866087B98AB183608AB985B1897FDF
:1004200085B988B1866088B98BB181608BB98FE955
:100430009FE00197F1F700C000008BB18E7F8BB970
:100440008FE99FE00197F1F700C0000085B1897F37
:1004500085B988B1866088B98BB181608BB98FE925
:100460009FE00197F1F700C000008BB18E7F8BB940
:100470008FE99FE00197F1F700C0000085B1897F07
:1004800085B988B1897F846088B98BB181608BB967
:100490008FE99FE00197F1F700C000008BB18E7FDC
:1004A0008BB98FE99FE00197F1F700C0000088E267
:1004B0000E940B018CE00E940B0160E0C0E00AC0CA
:1004C000D1E0D60F8C2F90E088599F4F0E94C60133
:1004D000C85F6D2FC034A0F3DF91CF910895EF92E4
:1004E000FF920F931F93CF93DF9300D000D01F9202
:1004F000CDB7DEB77B01FE01319625E0DF011D920D
:100500002A95E9F724E030E00FC06AE070E00E942D
:100510001B04E1E0F0E0EC0FFD1FE20FF31F80830E
:10052000862F972F21503109009779F7BFEFEB16EF
:10053000FB0681F403C00F5F1F4F02C000E010E014
:10054000E1E0F0E0EC0FFD1FE00FF11F208122231E
:1005500091F304C005E010E00E191F09992384F4FB
:100560008DE20E9473000CC0E1E0F0E0EC0FFD1F93
:10057000E00FF11F8081805D0E9473000F5F1F4FAD
:10058000053011058CF30F900F900F900F900F9086
:10059000DF91CF911F910F91FF90EF9008958FEF12
:1005A00087B9E0E7F0E080818C7F8083E6EBF0E0C4
:1005B0008081806280831092B20085E08093B100D8
:1005C0008091B6008A71E1F7E0E7F0E08081816018
:1005D0008083789408958091050164E60E940F0459
:1005E000911108C08091050190E060E971E00E94DE
:1005F0001B0408958091050183700895CF93DF93C4
:1006000000D01F92CDB7DEB70E94CF020E94F0014A
:1006100088B1809588B9809106018130C9F7109220
:10062000060160E084E00E94B70100E011E0F801FB
:10063000828162E070E090E00E946F028AE30E9493
:100640007300F801818162E070E090E00E946F0227
:100650008AE30E947300F801808162E070E090E01C
:100660000E946F0261E084E00E94B701F80183817B
:1006700062E070E090E00E946F028FE20E947300DF
:10068000F801848162E070E090E00E946F028FE2E6
:100690000E947300F801858162E070E090E00E94A2
:1006A0006F02F8018381813009F0B2CF809104019B
:1006B000813009F0ADCF60E08DE00E94B70186E4A3
:1006C000898381E48A838EE48B8363E0CE01019683
:1006D0000E949F019DCF1F920F920FB60F9211247F
:1006E0002F933F934F935F936F937F938F939F933A
:1006F000AF93BF93EF93FF93E0E0F1E080818F5FD2
:1007000080838C3309F064C0108281818F5F818384
:100710008C3309F05DC0118282818F5F82838831C2
:1007200009F056C0128283818F5F8383803231F457
:1007300084818F5F848381E083833FC08091030144
:100740008F31C1F480910401843061F08091040103
:10075000863041F080910401893021F080910401BC
:100760008B3059F5E0E0F1E084818F5F848381E094
:10077000838323C0809103018E3161F48091040151
:100780008230D9F4E0E0F1E084818F5F848381E0FE
:10079000838313C0809103018D3179F4809104012A
:1007A000823059F40E94EB02882339F0E0E0F1E056
:1007B00084818F5F848381E08383809104018D3005
:1007C00039F4E0E0F1E081E0848385818F5F858307
:1007D000E0E0F1E040819181292F30E0220F331FCA
:1007E000928150E8959FC0011124942F9170292B7C
:1007F000822B809588B981E080930601FF91EF916B
:10080000BF91AF919F918F917F916F915F914F9128
:100810003F912F910F900FBE0F901F901895991B2D
:1008200079E004C0991F961708F0961B881F7A95E7
:10083000C9F78095089597FB072E16F4009407D00A
:1008400077FD09D00E942F0407FC05D03EF4909557
:1008500081959F4F0895709561957F4F0895AA1BCC
:10086000BB1B51E107C0AA1FBB1FA617B70710F09B
:10087000A61BB70B881F991F5A95A9F780959095CD
:0A088000BC01CD010895F894FFCFEC
:06088A00373B171F0C6351
:00000001FF
