:100000000C9454000C945E000C945E000C945E0002
:100010000C945E000C945E000C945E000C945E00E8
:100020000C945E000C945E000C945E000C945E00D8
:100030000C945E000C945E000C945E000C945E00C8
:100040000C945E000C945E000C945E000C945E00B8
:100050000C945E000C945E000C945E000C945E00A8
:100060000C945E000C945E00001F000000001F0056
:10007000001F101010101F00001F181818181F0064
:10008000001F1C1C1C1C1F00001F1E1E1E1E1F000C
:10009000001F1F1F1F1F1F0003070F1F0F07030055
:1000A000181C1E1F1E1C180011241FBECFEFD8E005
:1000B000DEBFCDBF0E94C6020C945F030C9400000B
:1000C00065B1982F9074492F50E0559547955595F7
:1000D00047955595479555954795982F9078292F91
:1000E00030E0022E232F000C221F330B000C221FA6
:1000F000331F962F997F492B242B25B968B1982F50
:100100009071492F50E055954795559547955595D0
:100110004795982F9072292F30E035952795359582
:10012000279535952795962F997F492B242B28B90C
:100130009BB192609BB99BB191609BB925ED2A95CB
:10014000F1F700009BB19E7F9BB99BB19D7F9BB94E
:1001500095ED9A95F1F7000065B120E1829FC0010D
:100160001124AC01407455275595479555954795F1
:1001700055954795559547959C0120783327022E34
:10018000232F000C221F330B000C221F331F362F8E
:10019000397F432B242B25B948B19C01207133278B
:1001A000359527953595279535952795807299270B
:1001B000959587959595879595958795942F997F92
:1001C000292B822B88B98BB182608BB98BB181606E
:1001D0008BB985ED8A95F1F700008BB18E7F8BB9D5
:1001E0008BB18D7F8BB995ED9A95F1F7000008954D
:1001F00065B1982F9074492F50E0559547955595C6
:1002000047955595479555954795982F9078292F5F
:1002100030E0022E232F000C221F330B000C221F74
:10022000331F962F997F492B242B25B968B1982F1E
:100230009071492F50E0559547955595479555959F
:100240004795982F9072292F30E035952795359551
:10025000279535952795962F997F492B242B28B9DB
:100260009BB191609BB9EFE9FFE03197F1F700C0D6
:1002700000009BB19E7F9BB9EFE9FFE03197F1F75A
:1002800000C0000065B1F0E18F9FC0011124AC01F6
:1002900040745527559547955595479555954795DC
:1002A000559547959C0120783327022E232F000C6B
:1002B000221F330B000C221F331F362F397F432B95
:1002C000242B25B948B19C012071332735952795FA
:1002D000359527953595279580729927959587951A
:1002E0009595879595958795942F997F292B822BA6
:1002F00088B98BB181608BB98FE99FE00197F1F7E5
:1003000000C000008BB18E7F8BB9EFE9FFE0319721
:10031000F1F700C00000089581E00E94F800089500
:100320000F931F93CF93DF93009769F0D62F8C0123
:10033000C0E007C0F801EC0FF11D80810E94600051
:10034000CF5FCD17B8F3DF91CF911F910F91089533
:10035000623031F0633031F0613029F4805C03C0E9
:100360008C5E01C08C5A80680E94F8000895EF925C
:10037000FF920F931F93CF93DF937C01862F90E022
:10038000880F991F880F991F880F991F8064C0E0FC
:10039000D0E00DC0F701EC0FFD1F149101E0080F34
:1003A0000E94F800812F0E9460002196802FC830A3
:1003B000D10580F3DF91CF911F910F91FF90EF90C6
:1003C0000895CF93DF938FE59AEE0197F1F700C080
:1003D000000085B1897F85B988B1897F88B91BB84C
:1003E00087B1866087B984B1866084B984B186603C
:1003F00084B987B1866087B98AB183608AB985B1CB
:10040000897F85B988B1866088B98BB181608BB9E5
:100410008FE99FE00197F1F700C000008BB18E7F5C
:100420008BB98FE99FE00197F1F700C0000085B11B
:10043000897F85B988B1866088B98BB181608BB9B5
:100440008FE99FE00197F1F700C000008BB18E7F2C
:100450008BB98FE99FE00197F1F700C0000085B1EB
:10046000897F85B988B1897F846088B98BB18160C3
:100470008BB98FE99FE00197F1F700C000008BB1C5
:100480008E7F8BB98FE99FE00197F1F700C00000E4
:1004900088E20E94F8008CE00E94F80060E0C0E072
:1004A0000AC0D1E0D60F8C2F90E088599F4F0E9450
:1004B000B701C85F6D2FC034A0F3DF91CF910895CD
:1004C000EF92FF920F931F93CF93DF9300D000D052
:1004D0001F92CDB7DEB77B01FE01319625E0DF012B
:1004E0001D922A95E9F724E030E00FC06AE070E041
:1004F0000E941503E1E0F0E0EC0FFD1FE20FF31F97
:100500008083862F972F21503109009779F7BFEF0D
:10051000EB16FB0681F403C00F5F1F4F02C000E023
:1005200010E0E1E0F0E0EC0FFD1FE00FF11F208193
:10053000222391F304C005E010E00E191F0999234E
:1005400084F48DE20E9460000CC0E1E0F0E0EC0F6A
:10055000FD1FE00FF11F8081805D0E9460000F5F32
:100560001F4F053011058CF30F900F900F900F90D7
:100570000F90DF91CF911F910F91FF90EF90089511
:1005800086B38072089580E286BB0895CF93DF938F
:1005900000D000D0CDB7DEB784B18E7F84B9109281
:1005A000800082E4809381000E94E1010E948C011E
:1005B00082E590E59A8389838DE490E09C838B8328
:1005C00060E084E00E94A80163E0CE0101960E94F1
:1005D00090010E94C0028823E1F3009186001091EF
:1005E00087000E94C3020E94C0028823E1F3209189
:1005F000860030918700C901801B910B8C010E94FD
:10060000C30260E080E00E94A801980140E050E051
:1006100060E07EE389E490E00E94290363E070E0FB
:10062000822F90E00E946002D4CF97FB072E16F431
:10063000009407D077FD09D00E944B0307FC05D03A
:100640003EF4909581959F4F0895709561957F4FE9
:100650000895A1E21A2EAA1BBB1BFD010DC0AA1F03
:10066000BB1FEE1FFF1FA217B307E407F50720F01B
:10067000A21BB30BE40BF50B661F771F881F991F96
:100680001A9469F760957095809590959B01AC01DF
:10069000BD01CF010895AA1BBB1B51E107C0AA1FD2
:1006A000BB1FA617B70710F0A61BB70B881F991F13
:1006B0005A95A9F780959095BC01CD010895F894BD
:0206C000FFCF6A
:00000001FF
