S01900004D695072696D6572486F6C614D756E646F2E737265635F
S11300000C9434000C943E000C943E000C943E007E
S11300100C943E000C943E000C943E000C943E0064
S11300200C943E000C943E000C943E000C943E0054
S11300300C943E000C943E000C943E000C943E0044
S11300400C943E000C943E000C943E000C943E0034
S11300500C943E000C943E000C943E000C943E0024
S11300600C943E000C943E0011241FBECFEFD8E048
S1130070DEBFCDBF0E9451000C9455000C940000CB
S11300809FEF94B920E00AC0982F917095B9859597
S113009090E001C09F5F973FE8F32F5F2830A0F303
S11100A008958AEA0E944000FFCFF894FFCF33
S9030000FC
