:100000000C9434000C943E000C943E000C943E0082
:100010000C943E000C943E000C943E000C943E0068
:100020000C943E000C943E000C943E000C943E0058
:100030000C943E000C943E000C943E000C943E0048
:100040000C943E000C943E000C943E000C943E0038
:100050000C943E000C943E000C943E000C943E0028
:100060000C943E000C943E0011241FBECFEFD8E04C
:10007000DEBFCDBF0E944C000C9450000C940000D9
:100080009FEF94B990E005C0282F217025B9859580
:100090009F5F9830C8F308958EE10E944000FFCF23
:0400A000F894FFCF02
:00000001FF
